{
  "contractName": "MyNFT",
  "abi": [
    {
      "inputs": [],
      "stateMutability": "nonpayable",
      "type": "constructor"
    },
    {
      "anonymous": false,
      "inputs": [
        {
          "indexed": true,
          "internalType": "address",
          "name": "owner",
          "type": "address"
        },
        {
          "indexed": true,
          "internalType": "address",
          "name": "approved",
          "type": "address"
        },
        {
          "indexed": true,
          "internalType": "uint256",
          "name": "tokenId",
          "type": "uint256"
        }
      ],
      "name": "Approval",
      "type": "event"
    },
    {
      "anonymous": false,
      "inputs": [
        {
          "indexed": true,
          "internalType": "address",
          "name": "owner",
          "type": "address"
        },
        {
          "indexed": true,
          "internalType": "address",
          "name": "operator",
          "type": "address"
        },
        {
          "indexed": false,
          "internalType": "bool",
          "name": "approved",
          "type": "bool"
        }
      ],
      "name": "ApprovalForAll",
      "type": "event"
    },
    {
      "anonymous": false,
      "inputs": [
        {
          "indexed": false,
          "internalType": "uint256",
          "name": "_fromTokenId",
          "type": "uint256"
        },
        {
          "indexed": false,
          "internalType": "uint256",
          "name": "_toTokenId",
          "type": "uint256"
        }
      ],
      "name": "BatchMetadataUpdate",
      "type": "event"
    },
    {
      "anonymous": false,
      "inputs": [
        {
          "indexed": false,
          "internalType": "uint256",
          "name": "_tokenId",
          "type": "uint256"
        }
      ],
      "name": "MetadataUpdate",
      "type": "event"
    },
    {
      "anonymous": false,
      "inputs": [
        {
          "indexed": true,
          "internalType": "address",
          "name": "from",
          "type": "address"
        },
        {
          "indexed": true,
          "internalType": "address",
          "name": "to",
          "type": "address"
        },
        {
          "indexed": true,
          "internalType": "uint256",
          "name": "tokenId",
          "type": "uint256"
        }
      ],
      "name": "Transfer",
      "type": "event"
    },
    {
      "inputs": [
        {
          "internalType": "address",
          "name": "to",
          "type": "address"
        },
        {
          "internalType": "uint256",
          "name": "tokenId",
          "type": "uint256"
        }
      ],
      "name": "approve",
      "outputs": [],
      "stateMutability": "nonpayable",
      "type": "function"
    },
    {
      "inputs": [
        {
          "internalType": "address",
          "name": "owner",
          "type": "address"
        }
      ],
      "name": "balanceOf",
      "outputs": [
        {
          "internalType": "uint256",
          "name": "",
          "type": "uint256"
        }
      ],
      "stateMutability": "view",
      "type": "function"
    },
    {
      "inputs": [
        {
          "internalType": "uint256",
          "name": "tokenId",
          "type": "uint256"
        }
      ],
      "name": "getApproved",
      "outputs": [
        {
          "internalType": "address",
          "name": "",
          "type": "address"
        }
      ],
      "stateMutability": "view",
      "type": "function"
    },
    {
      "inputs": [
        {
          "internalType": "address",
          "name": "owner",
          "type": "address"
        },
        {
          "internalType": "address",
          "name": "operator",
          "type": "address"
        }
      ],
      "name": "isApprovedForAll",
      "outputs": [
        {
          "internalType": "bool",
          "name": "",
          "type": "bool"
        }
      ],
      "stateMutability": "view",
      "type": "function"
    },
    {
      "inputs": [],
      "name": "name",
      "outputs": [
        {
          "internalType": "string",
          "name": "",
          "type": "string"
        }
      ],
      "stateMutability": "view",
      "type": "function"
    },
    {
      "inputs": [
        {
          "internalType": "uint256",
          "name": "tokenId",
          "type": "uint256"
        }
      ],
      "name": "ownerOf",
      "outputs": [
        {
          "internalType": "address",
          "name": "",
          "type": "address"
        }
      ],
      "stateMutability": "view",
      "type": "function"
    },
    {
      "inputs": [
        {
          "internalType": "address",
          "name": "from",
          "type": "address"
        },
        {
          "internalType": "address",
          "name": "to",
          "type": "address"
        },
        {
          "internalType": "uint256",
          "name": "tokenId",
          "type": "uint256"
        }
      ],
      "name": "safeTransferFrom",
      "outputs": [],
      "stateMutability": "nonpayable",
      "type": "function"
    },
    {
      "inputs": [
        {
          "internalType": "address",
          "name": "from",
          "type": "address"
        },
        {
          "internalType": "address",
          "name": "to",
          "type": "address"
        },
        {
          "internalType": "uint256",
          "name": "tokenId",
          "type": "uint256"
        },
        {
          "internalType": "bytes",
          "name": "data",
          "type": "bytes"
        }
      ],
      "name": "safeTransferFrom",
      "outputs": [],
      "stateMutability": "nonpayable",
      "type": "function"
    },
    {
      "inputs": [
        {
          "internalType": "address",
          "name": "operator",
          "type": "address"
        },
        {
          "internalType": "bool",
          "name": "approved",
          "type": "bool"
        }
      ],
      "name": "setApprovalForAll",
      "outputs": [],
      "stateMutability": "nonpayable",
      "type": "function"
    },
    {
      "inputs": [
        {
          "internalType": "bytes4",
          "name": "interfaceId",
          "type": "bytes4"
        }
      ],
      "name": "supportsInterface",
      "outputs": [
        {
          "internalType": "bool",
          "name": "",
          "type": "bool"
        }
      ],
      "stateMutability": "view",
      "type": "function"
    },
    {
      "inputs": [],
      "name": "symbol",
      "outputs": [
        {
          "internalType": "string",
          "name": "",
          "type": "string"
        }
      ],
      "stateMutability": "view",
      "type": "function"
    },
    {
      "inputs": [
        {
          "internalType": "uint256",
          "name": "tokenId",
          "type": "uint256"
        }
      ],
      "name": "tokenURI",
      "outputs": [
        {
          "internalType": "string",
          "name": "",
          "type": "string"
        }
      ],
      "stateMutability": "view",
      "type": "function"
    },
    {
      "inputs": [
        {
          "internalType": "address",
          "name": "from",
          "type": "address"
        },
        {
          "internalType": "address",
          "name": "to",
          "type": "address"
        },
        {
          "internalType": "uint256",
          "name": "tokenId",
          "type": "uint256"
        }
      ],
      "name": "transferFrom",
      "outputs": [],
      "stateMutability": "nonpayable",
      "type": "function"
    },
    {
      "inputs": [
        {
          "internalType": "address",
          "name": "recipient",
          "type": "address"
        },
        {
          "internalType": "string",
          "name": "tokenURI",
          "type": "string"
        }
      ],
      "name": "mintNFT",
      "outputs": [
        {
          "internalType": "uint256",
          "name": "",
          "type": "uint256"
        }
      ],
      "stateMutability": "nonpayable",
      "type": "function"
    },
    {
      "inputs": [
        {
          "internalType": "uint256",
          "name": "tokenId",
          "type": "uint256"
        }
      ],
      "name": "burn",
      "outputs": [],
      "stateMutability": "nonpayable",
      "type": "function"
    }
  ],
  "bytecode": "0x60806040523480156200001157600080fd5b506040518060400160405280600581526020017f4d794e46540000000000000000000000000000000000000000000000000000008152506040518060400160405280600481526020017f4d4e465400000000000000000000000000000000000000000000000000000000815250816000908051906020019062000096929190620000b8565b508060019080519060200190620000af929190620000b8565b505050620001cd565b828054620000c69062000197565b90600052602060002090601f016020900481019282620000ea576000855562000136565b82601f106200010557805160ff191683800117855562000136565b8280016001018555821562000136579182015b828111156200013557825182559160200191906001019062000118565b5b50905062000145919062000149565b5090565b5b80821115620001645760008160009055506001016200014a565b5090565b7f4e487b7100000000000000000000000000000000000000000000000000000000600052602260045260246000fd5b60006002820490506001821680620001b057607f821691505b60208210811415620001c757620001c662000168565b5b50919050565b612c2d80620001dd6000396000f3fe608060405234801561001057600080fd5b50600436106100f55760003560e01c80636352211e11610097578063b88d4fde11610066578063b88d4fde14610282578063c87b56dd1461029e578063e985e9c5146102ce578063eacabe14146102fe576100f5565b80636352211e146101e857806370a082311461021857806395d89b4114610248578063a22cb46514610266576100f5565b8063095ea7b3116100d3578063095ea7b31461017857806323b872dd1461019457806342842e0e146101b057806342966c68146101cc576100f5565b806301ffc9a7146100fa57806306fdde031461012a578063081812fc14610148575b600080fd5b610114600480360381019061010f9190611d24565b61032e565b6040516101219190611d6c565b60405180910390f35b61013261038f565b60405161013f9190611e20565b60405180910390f35b610162600480360381019061015d9190611e78565b610421565b60405161016f9190611ee6565b60405180910390f35b610192600480360381019061018d9190611f2d565b610467565b005b6101ae60048036038101906101a99190611f6d565b61057f565b005b6101ca60048036038101906101c59190611f6d565b6105df565b005b6101e660048036038101906101e19190611e78565b6105ff565b005b61020260048036038101906101fd9190611e78565b610681565b60405161020f9190611ee6565b60405180910390f35b610232600480360381019061022d9190611fc0565b610708565b60405161023f9190611ffc565b60405180910390f35b6102506107c0565b60405161025d9190611e20565b60405180910390f35b610280600480360381019061027b9190612043565b610852565b005b61029c600480360381019061029791906121b8565b610868565b005b6102b860048036038101906102b39190611e78565b6108ca565b6040516102c59190611e20565b60405180910390f35b6102e860048036038101906102e3919061223b565b6109dd565b6040516102f59190611d6c565b60405180910390f35b6103186004803603810190610313919061231c565b610a71565b6040516103259190611ffc565b60405180910390f35b6000634906490660e01b7bffffffffffffffffffffffffffffffffffffffffffffffffffffffff1916827bffffffffffffffffffffffffffffffffffffffffffffffffffffffff19161480610388575061038782610aa9565b5b9050919050565b60606000805461039e906123a7565b80601f01602080910402602001604051908101604052809291908181526020018280546103ca906123a7565b80156104175780601f106103ec57610100808354040283529160200191610417565b820191906000526020600020905b8154815290600101906020018083116103fa57829003601f168201915b5050505050905090565b600061042c82610b8b565b6004600083815260200190815260200160002060009054906101000a900473ffffffffffffffffffffffffffffffffffffffff169050919050565b600061047282610681565b90508073ffffffffffffffffffffffffffffffffffffffff168373ffffffffffffffffffffffffffffffffffffffff1614156104e3576040517f08c379a00000000000000000000000000000000000000000000000000000000081526004016104da9061244b565b60405180910390fd5b8073ffffffffffffffffffffffffffffffffffffffff16610502610bd6565b73ffffffffffffffffffffffffffffffffffffffff16148061053157506105308161052b610bd6565b6109dd565b5b610570576040517f08c379a0000000000000000000000000000000000000000000000000000000008152600401610567906124dd565b60405180910390fd5b61057a8383610bde565b505050565b61059061058a610bd6565b82610c97565b6105cf576040517f08c379a00000000000000000000000000000000000000000000000000000000081526004016105c69061256f565b60405180910390fd5b6105da838383610d2c565b505050565b6105fa83838360405180602001604052806000815250610868565b505050565b3373ffffffffffffffffffffffffffffffffffffffff1661061f82610681565b73ffffffffffffffffffffffffffffffffffffffff1614610675576040517f08c379a000000000000000000000000000000000000000000000000000000000815260040161066c906125db565b60405180910390fd5b61067e81611026565b50565b60008061068d83611079565b9050600073ffffffffffffffffffffffffffffffffffffffff168173ffffffffffffffffffffffffffffffffffffffff1614156106ff576040517f08c379a00000000000000000000000000000000000000000000000000000000081526004016106f690612647565b60405180910390fd5b80915050919050565b60008073ffffffffffffffffffffffffffffffffffffffff168273ffffffffffffffffffffffffffffffffffffffff161415610779576040517f08c379a0000000000000000000000000000000000000000000000000000000008152600401610770906126d9565b60405180910390fd5b600360008373ffffffffffffffffffffffffffffffffffffffff1673ffffffffffffffffffffffffffffffffffffffff168152602001908152602001600020549050919050565b6060600180546107cf906123a7565b80601f01602080910402602001604051908101604052809291908181526020018280546107fb906123a7565b80156108485780601f1061081d57610100808354040283529160200191610848565b820191906000526020600020905b81548152906001019060200180831161082b57829003601f168201915b5050505050905090565b61086461085d610bd6565b83836110b6565b5050565b610879610873610bd6565b83610c97565b6108b8576040517f08c379a00000000000000000000000000000000000000000000000000000000081526004016108af9061256f565b60405180910390fd5b6108c484848484611223565b50505050565b60606108d582610b8b565b60006006600084815260200190815260200160002080546108f5906123a7565b80601f0160208091040260200160405190810160405280929190818152602001828054610921906123a7565b801561096e5780601f106109435761010080835404028352916020019161096e565b820191906000526020600020905b81548152906001019060200180831161095157829003601f168201915b50505050509050600061097f61127f565b90506000815114156109955781925050506109d8565b6000825111156109ca5780826040516020016109b2929190612735565b604051602081830303815290604052925050506109d8565b6109d384611296565b925050505b919050565b6000600560008473ffffffffffffffffffffffffffffffffffffffff1673ffffffffffffffffffffffffffffffffffffffff16815260200190815260200160002060008373ffffffffffffffffffffffffffffffffffffffff1673ffffffffffffffffffffffffffffffffffffffff16815260200190815260200160002060009054906101000a900460ff16905092915050565b6000610a7d60076112fe565b6000610a896007611314565b9050610a958482611322565b610a9f8184611540565b8091505092915050565b60007f80ac58cd000000000000000000000000000000000000000000000000000000007bffffffffffffffffffffffffffffffffffffffffffffffffffffffff1916827bffffffffffffffffffffffffffffffffffffffffffffffffffffffff19161480610b7457507f5b5e139f000000000000000000000000000000000000000000000000000000007bffffffffffffffffffffffffffffffffffffffffffffffffffffffff1916827bffffffffffffffffffffffffffffffffffffffffffffffffffffffff1916145b80610b845750610b83826115eb565b5b9050919050565b610b9481611655565b610bd3576040517f08c379a0000000000000000000000000000000000000000000000000000000008152600401610bca90612647565b60405180910390fd5b50565b600033905090565b816004600083815260200190815260200160002060006101000a81548173ffffffffffffffffffffffffffffffffffffffff021916908373ffffffffffffffffffffffffffffffffffffffff160217905550808273ffffffffffffffffffffffffffffffffffffffff16610c5183610681565b73ffffffffffffffffffffffffffffffffffffffff167f8c5be1e5ebec7d5bd14f71427d1e84f3dd0314c0f7b2291e5b200ac8c7c3b92560405160405180910390a45050565b600080610ca383610681565b90508073ffffffffffffffffffffffffffffffffffffffff168473ffffffffffffffffffffffffffffffffffffffff161480610ce55750610ce481856109dd565b5b80610d2357508373ffffffffffffffffffffffffffffffffffffffff16610d0b84610421565b73ffffffffffffffffffffffffffffffffffffffff16145b91505092915050565b8273ffffffffffffffffffffffffffffffffffffffff16610d4c82610681565b73ffffffffffffffffffffffffffffffffffffffff1614610da2576040517f08c379a0000000000000000000000000000000000000000000000000000000008152600401610d99906127cb565b60405180910390fd5b600073ffffffffffffffffffffffffffffffffffffffff168273ffffffffffffffffffffffffffffffffffffffff161415610e12576040517f08c379a0000000000000000000000000000000000000000000000000000000008152600401610e099061285d565b60405180910390fd5b610e1f8383836001611696565b8273ffffffffffffffffffffffffffffffffffffffff16610e3f82610681565b73ffffffffffffffffffffffffffffffffffffffff1614610e95576040517f08c379a0000000000000000000000000000000000000000000000000000000008152600401610e8c906127cb565b60405180910390fd5b6004600082815260200190815260200160002060006101000a81549073ffffffffffffffffffffffffffffffffffffffff02191690556001600360008573ffffffffffffffffffffffffffffffffffffffff1673ffffffffffffffffffffffffffffffffffffffff168152602001908152602001600020600082825403925050819055506001600360008473ffffffffffffffffffffffffffffffffffffffff1673ffffffffffffffffffffffffffffffffffffffff16815260200190815260200160002060008282540192505081905550816002600083815260200190815260200160002060006101000a81548173ffffffffffffffffffffffffffffffffffffffff021916908373ffffffffffffffffffffffffffffffffffffffff160217905550808273ffffffffffffffffffffffffffffffffffffffff168473ffffffffffffffffffffffffffffffffffffffff167fddf252ad1be2c89b69c2b068fc378daa952ba7f163c4a11628f55a4df523b3ef60405160405180910390a4611021838383600161169c565b505050565b61102f816116a2565b600060066000838152602001908152602001600020805461104f906123a7565b905014611076576006600082815260200190815260200160002060006110759190611bd5565b5b50565b60006002600083815260200190815260200160002060009054906101000a900473ffffffffffffffffffffffffffffffffffffffff169050919050565b8173ffffffffffffffffffffffffffffffffffffffff168373ffffffffffffffffffffffffffffffffffffffff161415611125576040517f08c379a000000000000000000000000000000000000000000000000000000000815260040161111c906128c9565b60405180910390fd5b80600560008573ffffffffffffffffffffffffffffffffffffffff1673ffffffffffffffffffffffffffffffffffffffff16815260200190815260200160002060008473ffffffffffffffffffffffffffffffffffffffff1673ffffffffffffffffffffffffffffffffffffffff16815260200190815260200160002060006101000a81548160ff0219169083151502179055508173ffffffffffffffffffffffffffffffffffffffff168373ffffffffffffffffffffffffffffffffffffffff167f17307eab39ab6107e8899845ad3d59bd9653f200f220920489ca2b5937696c31836040516112169190611d6c565b60405180910390a3505050565b61122e848484610d2c565b61123a848484846117f0565b611279576040517f08c379a00000000000000000000000000000000000000000000000000000000081526004016112709061295b565b60405180910390fd5b50505050565b606060405180602001604052806000815250905090565b60606112a182610b8b565b60006112ab61127f565b905060008151116112cb57604051806020016040528060008152506112f6565b806112d584611987565b6040516020016112e6929190612735565b6040516020818303038152906040525b915050919050565b6001816000016000828254019250508190555050565b600081600001549050919050565b600073ffffffffffffffffffffffffffffffffffffffff168273ffffffffffffffffffffffffffffffffffffffff161415611392576040517f08c379a0000000000000000000000000000000000000000000000000000000008152600401611389906129c7565b60405180910390fd5b61139b81611655565b156113db576040517f08c379a00000000000000000000000000000000000000000000000000000000081526004016113d290612a33565b60405180910390fd5b6113e9600083836001611696565b6113f281611655565b15611432576040517f08c379a000000000000000000000000000000000000000000000000000000000815260040161142990612a33565b60405180910390fd5b6001600360008473ffffffffffffffffffffffffffffffffffffffff1673ffffffffffffffffffffffffffffffffffffffff16815260200190815260200160002060008282540192505081905550816002600083815260200190815260200160002060006101000a81548173ffffffffffffffffffffffffffffffffffffffff021916908373ffffffffffffffffffffffffffffffffffffffff160217905550808273ffffffffffffffffffffffffffffffffffffffff16600073ffffffffffffffffffffffffffffffffffffffff167fddf252ad1be2c89b69c2b068fc378daa952ba7f163c4a11628f55a4df523b3ef60405160405180910390a461153c60008383600161169c565b5050565b61154982611655565b611588576040517f08c379a000000000000000000000000000000000000000000000000000000000815260040161157f90612ac5565b60405180910390fd5b806006600084815260200190815260200160002090805190602001906115af929190611c15565b507ff8e1a15aba9398e019f0b49df1a4fde98ee17ae345cb5f6b5e2c27f5033e8ce7826040516115df9190611ffc565b60405180910390a15050565b60007f01ffc9a7000000000000000000000000000000000000000000000000000000007bffffffffffffffffffffffffffffffffffffffffffffffffffffffff1916827bffffffffffffffffffffffffffffffffffffffffffffffffffffffff1916149050919050565b60008073ffffffffffffffffffffffffffffffffffffffff1661167783611079565b73ffffffffffffffffffffffffffffffffffffffff1614159050919050565b50505050565b50505050565b60006116ad82610681565b90506116bd816000846001611696565b6116c682610681565b90506004600083815260200190815260200160002060006101000a81549073ffffffffffffffffffffffffffffffffffffffff02191690556001600360008373ffffffffffffffffffffffffffffffffffffffff1673ffffffffffffffffffffffffffffffffffffffff168152602001908152602001600020600082825403925050819055506002600083815260200190815260200160002060006101000a81549073ffffffffffffffffffffffffffffffffffffffff021916905581600073ffffffffffffffffffffffffffffffffffffffff168273ffffffffffffffffffffffffffffffffffffffff167fddf252ad1be2c89b69c2b068fc378daa952ba7f163c4a11628f55a4df523b3ef60405160405180910390a46117ec81600084600161169c565b5050565b60006118118473ffffffffffffffffffffffffffffffffffffffff16611a5f565b1561197a578373ffffffffffffffffffffffffffffffffffffffff1663150b7a0261183a610bd6565b8786866040518563ffffffff1660e01b815260040161185c9493929190612b3a565b602060405180830381600087803b15801561187657600080fd5b505af19250505080156118a757506040513d601f19601f820116820180604052508101906118a49190612b9b565b60015b61192a573d80600081146118d7576040519150601f19603f3d011682016040523d82523d6000602084013e6118dc565b606091505b50600081511415611922576040517f08c379a00000000000000000000000000000000000000000000000000000000081526004016119199061295b565b60405180910390fd5b805181602001fd5b63150b7a0260e01b7bffffffffffffffffffffffffffffffffffffffffffffffffffffffff1916817bffffffffffffffffffffffffffffffffffffffffffffffffffffffff19161491505061197f565b600190505b949350505050565b60606000600161199684611a82565b01905060008167ffffffffffffffff8111156119b5576119b461208d565b5b6040519080825280601f01601f1916602001820160405280156119e75781602001600182028036833780820191505090505b509050600082602001820190505b600115611a54578080600190039150507f3031323334353637383961626364656600000000000000000000000000000000600a86061a8153600a8581611a3e57611a3d612bc8565b5b0494506000851415611a4f57611a54565b6119f5565b819350505050919050565b6000808273ffffffffffffffffffffffffffffffffffffffff163b119050919050565b600080600090507a184f03e93ff9f4daa797ed6e38ed64bf6a1f0100000000000000008310611ae0577a184f03e93ff9f4daa797ed6e38ed64bf6a1f0100000000000000008381611ad657611ad5612bc8565b5b0492506040810190505b6d04ee2d6d415b85acef81000000008310611b1d576d04ee2d6d415b85acef81000000008381611b1357611b12612bc8565b5b0492506020810190505b662386f26fc100008310611b4c57662386f26fc100008381611b4257611b41612bc8565b5b0492506010810190505b6305f5e1008310611b75576305f5e1008381611b6b57611b6a612bc8565b5b0492506008810190505b6127108310611b9a576127108381611b9057611b8f612bc8565b5b0492506004810190505b60648310611bbd5760648381611bb357611bb2612bc8565b5b0492506002810190505b600a8310611bcc576001810190505b80915050919050565b508054611be1906123a7565b6000825580601f10611bf35750611c12565b601f016020900490600052602060002090810190611c119190611c9b565b5b50565b828054611c21906123a7565b90600052602060002090601f016020900481019282611c435760008555611c8a565b82601f10611c5c57805160ff1916838001178555611c8a565b82800160010185558215611c8a579182015b82811115611c89578251825591602001919060010190611c6e565b5b509050611c979190611c9b565b5090565b5b80821115611cb4576000816000905550600101611c9c565b5090565b6000604051905090565b600080fd5b600080fd5b60007fffffffff0000000000000000000000000000000000000000000000000000000082169050919050565b611d0181611ccc565b8114611d0c57600080fd5b50565b600081359050611d1e81611cf8565b92915050565b600060208284031215611d3a57611d39611cc2565b5b6000611d4884828501611d0f565b91505092915050565b60008115159050919050565b611d6681611d51565b82525050565b6000602082019050611d816000830184611d5d565b92915050565b600081519050919050565b600082825260208201905092915050565b60005b83811015611dc1578082015181840152602081019050611da6565b83811115611dd0576000848401525b50505050565b6000601f19601f8301169050919050565b6000611df282611d87565b611dfc8185611d92565b9350611e0c818560208601611da3565b611e1581611dd6565b840191505092915050565b60006020820190508181036000830152611e3a8184611de7565b905092915050565b6000819050919050565b611e5581611e42565b8114611e6057600080fd5b50565b600081359050611e7281611e4c565b92915050565b600060208284031215611e8e57611e8d611cc2565b5b6000611e9c84828501611e63565b91505092915050565b600073ffffffffffffffffffffffffffffffffffffffff82169050919050565b6000611ed082611ea5565b9050919050565b611ee081611ec5565b82525050565b6000602082019050611efb6000830184611ed7565b92915050565b611f0a81611ec5565b8114611f1557600080fd5b50565b600081359050611f2781611f01565b92915050565b60008060408385031215611f4457611f43611cc2565b5b6000611f5285828601611f18565b9250506020611f6385828601611e63565b9150509250929050565b600080600060608486031215611f8657611f85611cc2565b5b6000611f9486828701611f18565b9350506020611fa586828701611f18565b9250506040611fb686828701611e63565b9150509250925092565b600060208284031215611fd657611fd5611cc2565b5b6000611fe484828501611f18565b91505092915050565b611ff681611e42565b82525050565b60006020820190506120116000830184611fed565b92915050565b61202081611d51565b811461202b57600080fd5b50565b60008135905061203d81612017565b92915050565b6000806040838503121561205a57612059611cc2565b5b600061206885828601611f18565b92505060206120798582860161202e565b9150509250929050565b600080fd5b600080fd5b7f4e487b7100000000000000000000000000000000000000000000000000000000600052604160045260246000fd5b6120c582611dd6565b810181811067ffffffffffffffff821117156120e4576120e361208d565b5b80604052505050565b60006120f7611cb8565b905061210382826120bc565b919050565b600067ffffffffffffffff8211156121235761212261208d565b5b61212c82611dd6565b9050602081019050919050565b82818337600083830152505050565b600061215b61215684612108565b6120ed565b90508281526020810184848401111561217757612176612088565b5b612182848285612139565b509392505050565b600082601f83011261219f5761219e612083565b5b81356121af848260208601612148565b91505092915050565b600080600080608085870312156121d2576121d1611cc2565b5b60006121e087828801611f18565b94505060206121f187828801611f18565b935050604061220287828801611e63565b925050606085013567ffffffffffffffff81111561222357612222611cc7565b5b61222f8782880161218a565b91505092959194509250565b6000806040838503121561225257612251611cc2565b5b600061226085828601611f18565b925050602061227185828601611f18565b9150509250929050565b600067ffffffffffffffff8211156122965761229561208d565b5b61229f82611dd6565b9050602081019050919050565b60006122bf6122ba8461227b565b6120ed565b9050828152602081018484840111156122db576122da612088565b5b6122e6848285612139565b509392505050565b600082601f83011261230357612302612083565b5b81356123138482602086016122ac565b91505092915050565b6000806040838503121561233357612332611cc2565b5b600061234185828601611f18565b925050602083013567ffffffffffffffff81111561236257612361611cc7565b5b61236e858286016122ee565b9150509250929050565b7f4e487b7100000000000000000000000000000000000000000000000000000000600052602260045260246000fd5b600060028204905060018216806123bf57607f821691505b602082108114156123d3576123d2612378565b5b50919050565b7f4552433732313a20617070726f76616c20746f2063757272656e74206f776e6560008201527f7200000000000000000000000000000000000000000000000000000000000000602082015250565b6000612435602183611d92565b9150612440826123d9565b604082019050919050565b6000602082019050818103600083015261246481612428565b9050919050565b7f4552433732313a20617070726f76652063616c6c6572206973206e6f7420746f60008201527f6b656e206f776e6572206f7220617070726f76656420666f7220616c6c000000602082015250565b60006124c7603d83611d92565b91506124d28261246b565b604082019050919050565b600060208201905081810360008301526124f6816124ba565b9050919050565b7f4552433732313a2063616c6c6572206973206e6f7420746f6b656e206f776e6560008201527f72206f7220617070726f76656400000000000000000000000000000000000000602082015250565b6000612559602d83611d92565b9150612564826124fd565b604082019050919050565b600060208201905081810360008301526125888161254c565b9050919050565b7f596f7520617265206e6f7420746865206f776e65720000000000000000000000600082015250565b60006125c5601583611d92565b91506125d08261258f565b602082019050919050565b600060208201905081810360008301526125f4816125b8565b9050919050565b7f4552433732313a20696e76616c696420746f6b656e2049440000000000000000600082015250565b6000612631601883611d92565b915061263c826125fb565b602082019050919050565b6000602082019050818103600083015261266081612624565b9050919050565b7f4552433732313a2061646472657373207a65726f206973206e6f74206120766160008201527f6c6964206f776e65720000000000000000000000000000000000000000000000602082015250565b60006126c3602983611d92565b91506126ce82612667565b604082019050919050565b600060208201905081810360008301526126f2816126b6565b9050919050565b600081905092915050565b600061270f82611d87565b61271981856126f9565b9350612729818560208601611da3565b80840191505092915050565b60006127418285612704565b915061274d8284612704565b91508190509392505050565b7f4552433732313a207472616e736665722066726f6d20696e636f72726563742060008201527f6f776e6572000000000000000000000000000000000000000000000000000000602082015250565b60006127b5602583611d92565b91506127c082612759565b604082019050919050565b600060208201905081810360008301526127e4816127a8565b9050919050565b7f4552433732313a207472616e7366657220746f20746865207a65726f2061646460008201527f7265737300000000000000000000000000000000000000000000000000000000602082015250565b6000612847602483611d92565b9150612852826127eb565b604082019050919050565b600060208201905081810360008301526128768161283a565b9050919050565b7f4552433732313a20617070726f766520746f2063616c6c657200000000000000600082015250565b60006128b3601983611d92565b91506128be8261287d565b602082019050919050565b600060208201905081810360008301526128e2816128a6565b9050919050565b7f4552433732313a207472616e7366657220746f206e6f6e20455243373231526560008201527f63656976657220696d706c656d656e7465720000000000000000000000000000602082015250565b6000612945603283611d92565b9150612950826128e9565b604082019050919050565b6000602082019050818103600083015261297481612938565b9050919050565b7f4552433732313a206d696e7420746f20746865207a65726f2061646472657373600082015250565b60006129b1602083611d92565b91506129bc8261297b565b602082019050919050565b600060208201905081810360008301526129e0816129a4565b9050919050565b7f4552433732313a20746f6b656e20616c7265616479206d696e74656400000000600082015250565b6000612a1d601c83611d92565b9150612a28826129e7565b602082019050919050565b60006020820190508181036000830152612a4c81612a10565b9050919050565b7f45524337323155524953746f726167653a2055524920736574206f66206e6f6e60008201527f6578697374656e7420746f6b656e000000000000000000000000000000000000602082015250565b6000612aaf602e83611d92565b9150612aba82612a53565b604082019050919050565b60006020820190508181036000830152612ade81612aa2565b9050919050565b600081519050919050565b600082825260208201905092915050565b6000612b0c82612ae5565b612b168185612af0565b9350612b26818560208601611da3565b612b2f81611dd6565b840191505092915050565b6000608082019050612b4f6000830187611ed7565b612b5c6020830186611ed7565b612b696040830185611fed565b8181036060830152612b7b8184612b01565b905095945050505050565b600081519050612b9581611cf8565b92915050565b600060208284031215612bb157612bb0611cc2565b5b6000612bbf84828501612b86565b91505092915050565b7f4e487b7100000000000000000000000000000000000000000000000000000000600052601260045260246000fdfea2646970667358221220af031a4a78d7c379b47d2baccf9fda1c3c1d7643b70c9f83eb3e7f7dfc6a45d564736f6c63430008090033",
  "immutableReferences": {},
  "source": " // SPDX-License-Identifier: MIT \r\npragma solidity ^0.8.9; \r\n \r\nimport \"@openzeppelin/contracts/token/ERC721/ERC721.sol\"; \r\nimport \r\n\"@openzeppelin/contracts/token/ERC721/extensions/ERC721URIStorage.sol\"; \r\nimport \"@openzeppelin/contracts/utils/Counters.sol\"; \r\n \r\ncontract MyNFT is ERC721URIStorage { \r\n    using Counters for Counters.Counter; \r\n    Counters.Counter private _tokenIds; \r\n \r\n    constructor() ERC721(\"MyNFT\", \"MNFT\") {} \r\n \r\n    function mintNFT(address recipient, string memory tokenURI)  \r\n        public  \r\n        returns (uint256) \r\n    { \r\n        _tokenIds.increment(); \r\n \r\n        uint256 newItemId = _tokenIds.current(); \r\n        _mint(recipient, newItemId); \r\n        _setTokenURI(newItemId, tokenURI); \r\n \r\n        return newItemId; \r\n    } \r\n    //  Fungsi burn: hanya pemilik token yang bisa membakarnya\r\n    function burn(uint256 tokenId) public {\r\n        require(ownerOf(tokenId) == msg.sender, \"You are not the owner\");\r\n        _burn(tokenId);\r\n\r\n    }\r\n} ",
  "sourcePath": "E:\\blokchain\\praktikum nft\\nft-praktikum\\contracts\\MyNFT.sol",
  "compiler": {
    "name": "solc",
    "version": "0.8.9+commit.e5eed63a.Emscripten.clang"
  },
  "schemaVersion": "3.4.16",
  "updatedAt": "2025-11-30T13:02:30.450Z",
  "devdoc": {
    "kind": "dev",
    "methods": {
      "approve(address,uint256)": {
        "details": "See {IERC721-approve}."
      },
      "balanceOf(address)": {
        "details": "See {IERC721-balanceOf}."
      },
      "getApproved(uint256)": {
        "details": "See {IERC721-getApproved}."
      },
      "isApprovedForAll(address,address)": {
        "details": "See {IERC721-isApprovedForAll}."
      },
      "name()": {
        "details": "See {IERC721Metadata-name}."
      },
      "ownerOf(uint256)": {
        "details": "See {IERC721-ownerOf}."
      },
      "safeTransferFrom(address,address,uint256)": {
        "details": "See {IERC721-safeTransferFrom}."
      },
      "safeTransferFrom(address,address,uint256,bytes)": {
        "details": "See {IERC721-safeTransferFrom}."
      },
      "setApprovalForAll(address,bool)": {
        "details": "See {IERC721-setApprovalForAll}."
      },
      "supportsInterface(bytes4)": {
        "details": "See {IERC165-supportsInterface}"
      },
      "symbol()": {
        "details": "See {IERC721Metadata-symbol}."
      },
      "tokenURI(uint256)": {
        "details": "See {IERC721Metadata-tokenURI}."
      },
      "transferFrom(address,address,uint256)": {
        "details": "See {IERC721-transferFrom}."
      }
    },
    "version": 1
  },
  "userdoc": {
    "kind": "user",
    "methods": {},
    "version": 1
  }
}